{
  "abi": [
    {
      "anonymous": false,
      "inputs": [
        {
          "indexed": false,
          "internalType": "uint8",
          "name": "version",
          "type": "uint8"
        }
      ],
      "name": "Initialized",
      "type": "event"
    },
    {
      "anonymous": false,
      "inputs": [
        {
          "indexed": true,
          "internalType": "bytes",
          "name": "failureReturnData",
          "type": "bytes"
        },
        {
          "indexed": true,
          "internalType": "address",
          "name": "redeemer",
          "type": "address"
        },
        {
          "indexed": false,
          "internalType": "uint256",
          "name": "sharesAmount",
          "type": "uint256"
        }
      ],
      "name": "PreRedeemSharesHookFailed",
      "type": "event"
    },
    {
      "anonymous": false,
      "inputs": [
        {
          "indexed": true,
          "internalType": "address",
          "name": "buyer",
          "type": "address"
        },
        {
          "indexed": false,
          "internalType": "uint256",
          "name": "investmentAmount",
          "type": "uint256"
        },
        {
          "indexed": false,
          "internalType": "uint256",
          "name": "sharesPrev",
          "type": "uint256"
        },
        {
          "indexed": false,
          "internalType": "uint256",
          "name": "sharesReceived",
          "type": "uint256"
        }
      ],
      "name": "SharesBought",
      "type": "event"
    },
    {
      "anonymous": false,
      "inputs": [
        {
          "indexed": true,
          "internalType": "address",
          "name": "redeemer",
          "type": "address"
        },
        {
          "indexed": true,
          "internalType": "address",
          "name": "recipient",
          "type": "address"
        },
        {
          "indexed": false,
          "internalType": "uint256",
          "name": "sharesAmount",
          "type": "uint256"
        },
        {
          "indexed": false,
          "internalType": "address[]",
          "name": "receivedAssets",
          "type": "address[]"
        },
        {
          "indexed": false,
          "internalType": "uint256[]",
          "name": "receivedAssetAmounts",
          "type": "uint256[]"
        }
      ],
      "name": "SharesRedeemed",
      "type": "event"
    },
    {
      "anonymous": false,
      "inputs": [
        {
          "indexed": false,
          "internalType": "address",
          "name": "vaultProxy",
          "type": "address"
        }
      ],
      "name": "VaultProxySet",
      "type": "event"
    },
    {
      "inputs": [],
      "name": "activate",
      "outputs": [],
      "stateMutability": "nonpayable",
      "type": "function"
    },
    {
      "inputs": [
        {
          "internalType": "uint256",
          "name": "_investmentAmount",
          "type": "uint256"
        },
        {
          "internalType": "uint256",
          "name": "_minSharesQuantity",
          "type": "uint256"
        }
      ],
      "name": "buyShares",
      "outputs": [
        {
          "internalType": "uint256",
          "name": "sharesReceived_",
          "type": "uint256"
        }
      ],
      "stateMutability": "nonpayable",
      "type": "function"
    },
    {
      "inputs": [],
      "name": "calcAum",
      "outputs": [
        {
          "internalType": "uint256",
          "name": "aum_",
          "type": "uint256"
        }
      ],
      "stateMutability": "nonpayable",
      "type": "function"
    },
    {
      "inputs": [],
      "name": "calcNav",
      "outputs": [
        {
          "internalType": "uint256",
          "name": "nav_",
          "type": "uint256"
        }
      ],
      "stateMutability": "nonpayable",
      "type": "function"
    },
    {
      "inputs": [
        {
          "internalType": "address",
          "name": "_extension",
          "type": "address"
        },
        {
          "internalType": "uint256",
          "name": "_actionId",
          "type": "uint256"
        },
        {
          "internalType": "bytes",
          "name": "_callArgs",
          "type": "bytes"
        }
      ],
      "name": "callOnExtension",
      "outputs": [],
      "stateMutability": "nonpayable",
      "type": "function"
    },
    {
      "inputs": [],
      "name": "getDenominationAsset",
      "outputs": [
        {
          "internalType": "address",
          "name": "denominationAsset_",
          "type": "address"
        }
      ],
      "stateMutability": "view",
      "type": "function"
    },
    {
      "inputs": [],
      "name": "getGlobalShared",
      "outputs": [
        {
          "internalType": "address",
          "name": "globalShared_",
          "type": "address"
        }
      ],
      "stateMutability": "view",
      "type": "function"
    },
    {
      "inputs": [
        {
          "internalType": "address",
          "name": "account_",
          "type": "address"
        }
      ],
      "name": "getLastSharesBoughtTimestampForAccount",
      "outputs": [
        {
          "internalType": "uint256",
          "name": "lastSharesBoughtTimestamp_",
          "type": "uint256"
        }
      ],
      "stateMutability": "view",
      "type": "function"
    },
    {
      "inputs": [],
      "name": "getSharesActionTimelock",
      "outputs": [
        {
          "internalType": "uint256",
          "name": "sharesActionTimelock_",
          "type": "uint256"
        }
      ],
      "stateMutability": "view",
      "type": "function"
    },
    {
      "inputs": [],
      "name": "getVaultProxy",
      "outputs": [
        {
          "internalType": "address",
          "name": "vaultProxy_",
          "type": "address"
        }
      ],
      "stateMutability": "view",
      "type": "function"
    },
    {
      "inputs": [
        {
          "internalType": "address",
          "name": "globalShared_",
          "type": "address"
        },
        {
          "internalType": "address",
          "name": "denominationAsset_",
          "type": "address"
        },
        {
          "internalType": "uint256",
          "name": "sharesActionTimelock_",
          "type": "uint256"
        }
      ],
      "name": "initialize",
      "outputs": [],
      "stateMutability": "nonpayable",
      "type": "function"
    },
    {
      "inputs": [
        {
          "internalType": "enum IVaultLogic.VaultAction",
          "name": "_action",
          "type": "uint8"
        },
        {
          "internalType": "bytes",
          "name": "_actionData",
          "type": "bytes"
        }
      ],
      "name": "permissionedVaultAction",
      "outputs": [],
      "stateMutability": "nonpayable",
      "type": "function"
    },
    {
      "inputs": [
        {
          "internalType": "address",
          "name": "_recipient",
          "type": "address"
        },
        {
          "internalType": "uint256",
          "name": "_sharesQuantity",
          "type": "uint256"
        },
        {
          "internalType": "address[]",
          "name": "_payoutAssets",
          "type": "address[]"
        },
        {
          "internalType": "uint256[]",
          "name": "_payoutAssetPercentages",
          "type": "uint256[]"
        }
      ],
      "name": "redeemSharesForSpecificAssets",
      "outputs": [
        {
          "internalType": "uint256[]",
          "name": "payoutAmounts_",
          "type": "uint256[]"
        }
      ],
      "stateMutability": "nonpayable",
      "type": "function"
    },
    {
      "inputs": [
        {
          "internalType": "address",
          "name": "vaultProxy_",
          "type": "address"
        }
      ],
      "name": "setVaultProxy",
      "outputs": [],
      "stateMutability": "nonpayable",
      "type": "function"
    }
  ],
  "bytecode": {
    "object": "0x608060405234801561001057600080fd5b506125a4806100206000396000f3fe608060405234801561001057600080fd5b50600436106100ea5760003560e01c8063442ab7441161008c578063ba82a0f411610066578063ba82a0f4146101b9578063beebc5da146101e4578063c9809187146101f7578063e269c3d61461020857600080fd5b8063442ab744146101805780634da471b7146101885780637f20170d1461019057600080fd5b80632acf179b116100c85780632acf179b1461011f5780633462fcc11461013a578063397bfe551461015a57806339bf70d11461016d57600080fd5b80630f15f4c0146100ef57806310acd06d146100f95780631794bb3c1461010c575b600080fd5b6100f7610219565b005b6100f7610107366004611e07565b6102b4565b6100f761011a366004611e78565b6103d1565b610127610523565b6040519081526020015b60405180910390f35b61014d610148366004611efe565b61062d565b6040516101319190611fc5565b6100f7610168366004611fd8565b61081c565b6100f761017b366004611ff5565b6108e1565b610127610a75565b600354610127565b61012761019e366004611fd8565b6001600160a01b031660009081526004602052604090205490565b6000546201000090046001600160a01b03165b6040516001600160a01b039091168152602001610131565b6101276101f2366004612051565b610d12565b6002546001600160a01b03166101cc565b6001546001600160a01b03166101cc565b610221610d2c565b60006102356002546001600160a01b031690565b9050806001600160a01b0316634ef0762e6102586001546001600160a01b031690565b6040516001600160e01b031960e084901b1681526001600160a01b039091166004820152602401600060405180830381600087803b15801561029957600080fd5b505af11580156102ad573d6000803e3d6000fd5b5050505050565b60068360078111156102c8576102c8612073565b03610366576001546001600160a01b03166102e583830184611fd8565b6001600160a01b0316036103665760405162461bcd60e51b815260206004820152603a60248201527f7065726d697373696f6e65645661756c74416374696f6e3a2043616e6e6f742060448201527f756e747261636b2064656e6f6d696e6174696f6e20617373657400000000000060648201526084015b60405180910390fd5b600254604051631273000960e11b81526001600160a01b03909116906324e600129061039a908690869086906004016120b2565b600060405180830381600087803b1580156103b457600080fd5b505af11580156103c8573d6000803e3d6000fd5b50505050505050565b600054610100900460ff16158080156103f15750600054600160ff909116105b8061040b5750303b15801561040b575060005460ff166001145b61046e5760405162461bcd60e51b815260206004820152602e60248201527f496e697469616c697a61626c653a20636f6e747261637420697320616c72656160448201526d191e481a5b9a5d1a585b1a5e995960921b606482015260840161035d565b6000805460ff191660011790558015610491576000805461ff0019166101001790555b6000805462010000600160b01b031916620100006001600160a01b0387811691909102919091179091556003839055600180546001600160a01b031916918516919091179055801561051d576000805461ff0019169055604051600181527f7f26b83ff96e1f2b6a682f133852f6798a09c465da95921460cefb38474024989060200160405180910390a15b50505050565b60008061052e610a75565b9050610627816105466002546001600160a01b031690565b6001600160a01b03166318160ddd6040518163ffffffff1660e01b8152600401602060405180830381865afa158015610583573d6000803e3d6000fd5b505050506040513d601f19601f820116820180604052508101906105a791906120f3565b6001546001600160a01b03166001600160a01b031663313ce5676040518163ffffffff1660e01b8152600401602060405180830381865afa1580156105f0573d6000803e3d6000fd5b505050506040513d601f19601f82011682018060405250810190610614919061210c565b6106229060ff16600a612229565b610e01565b91505090565b6060610637610e32565b6002805460ff60a81b1916600160a81b179055338483146106b05760405162461bcd60e51b815260206004820152602d60248201527f72656465656d536861726573466f7253706563696669634173736574733a205560448201526c6e657175616c2061727261797360981b606482015260840161035d565b6106ec868680806020026020016040519081016040528093929190818152602001838360200280828437600092019190915250610e7a92505050565b6107565760405162461bcd60e51b815260206004820152603560248201527f72656465656d536861726573466f7253706563696669634173736574733a20446044820152741d5c1b1a58d85d19481c185e5bdd5d08185cdcd95d605a1b606482015260840161035d565b6000610760610a75565b905060006107766002546001600160a01b031690565b905060008061078683868d610f37565b90925090506107ad838d8c8c8c8c6107a8886107a28d8c61119d565b906111a9565b6111b5565b95508b6001600160a01b0316856001600160a01b03167fbf88879a1555e4d7d38ebeffabce61fdf5e12ea0468abf855a72ec17b432bed5848d8d8b6040516107f89493929190612235565b60405180910390a350505050506002805460ff60a81b191690559695505050505050565b610824610d2c565b6001600160a01b03811661088d5760405162461bcd60e51b815260206004820152602a60248201527f7365745661756c7450726f78793a205f7661756c7450726f78792063616e6e6f6044820152697420626520656d70747960b01b606482015260840161035d565b600280546001600160a01b0319166001600160a01b0383169081179091556040519081527f5be181178e61e61e33f79c396c7194b8f3c80f77899da7bd96fe537411300bcb9060200160405180910390a150565b6108e9610e32565b6002805460ff60a81b1916600160a81b1790556109046115d8565b6002805460ff60a01b1916600160a01b1790556109306000546001600160a01b03620100009091041690565b6001600160a01b031663e7c456906040518163ffffffff1660e01b8152600401602060405180830381865afa15801561096d573d6000803e3d6000fd5b505050506040513d601f19601f8201168201806040525081019061099191906122b1565b6001600160a01b0316846001600160a01b0316146109fd5760405162461bcd60e51b815260206004820152602360248201527f63616c6c4f6e457874656e73696f6e3a205f657874656e73696f6e20696e76616044820152621b1a5960ea1b606482015260840161035d565b6040516306fb2d8760e11b81526001600160a01b03851690630df65b0e90610a2f9033908790879087906004016122ce565b600060405180830381600087803b158015610a4957600080fd5b505af1158015610a5d573d6000803e3d6000fd5b50506002805461ffff60a01b19169055505050505050565b600080610a8a6002546001600160a01b031690565b90506000816001600160a01b031663c4b973706040518163ffffffff1660e01b8152600401600060405180830381865afa158015610acc573d6000803e3d6000fd5b505050506040513d6000823e601f3d908101601f19168201604052610af49190810190612316565b90508051600003610b085760009250505090565b6000815167ffffffffffffffff811115610b2457610b24612300565b604051908082528060200260200182016040528015610b4d578160200160208202803683370190505b50905060005b8251811015610c1357828181518110610b6e57610b6e6123db565b60209081029190910101516040516370a0823160e01b81526001600160a01b038681166004830152909116906370a0823190602401602060405180830381865afa158015610bc0573d6000803e3d6000fd5b505050506040513d601f19601f82011682018060405250810190610be491906120f3565b828281518110610bf657610bf66123db565b602090810291909101015280610c0b816123f1565b915050610b53565b506000546201000090046001600160a01b03166001600160a01b0316634ddce9b06040518163ffffffff1660e01b8152600401602060405180830381865afa158015610c63573d6000803e3d6000fd5b505050506040513d601f19601f82011682018060405250810190610c8791906122b1565b6001600160a01b031663ae6f52ad8383610ca96001546001600160a01b031690565b6040518463ffffffff1660e01b8152600401610cc79392919061240a565b6020604051808303816000875af1158015610ce6573d6000803e3d6000fd5b505050506040513d601f19601f82011682018060405250810190610d0a91906120f3565b935050505090565b600033610d228185858583611632565b9150505b92915050565b6000546201000090046001600160a01b03166001600160a01b03166318bcb2846040518163ffffffff1660e01b8152600401602060405180830381865afa158015610d7b573d6000803e3d6000fd5b505050506040513d601f19601f82011682018060405250810190610d9f91906122b1565b6001600160a01b0316336001600160a01b031614610dff5760405162461bcd60e51b815260206004820152601a60248201527f4f6e6c79205661756c74466163746f72792063616c6c61626c65000000000000604482015260640161035d565b565b600082600003610e12575080610e2b565b610e28836107a286670de0b6b3a764000061119d565b90505b9392505050565b600254600160a81b900460ff1615610dff5760405162461bcd60e51b815260206004820152600b60248201526a52652d656e7472616e636560a81b604482015260640161035d565b60006001825111610e8d57506001919050565b815160005b81811015610f2d576000610ea782600161247a565b90505b82811015610f1a57848181518110610ec457610ec46123db565b60200260200101516001600160a01b0316858381518110610ee757610ee76123db565b60200260200101516001600160a01b031603610f0857506000949350505050565b80610f12816123f1565b915050610eaa565b5080610f25816123f1565b915050610e92565b5060019392505050565b600080610f43846119dd565b6040516370a0823160e01b81526001600160a01b03858116600483015286916000918316906370a0823190602401602060405180830381865afa158015610f8e573d6000803e3d6000fd5b505050506040513d601f19601f82011682018060405250810190610fb291906120f3565b90506000198503610fc557809350610fc9565b8493505b6000841161102a5760405162461bcd60e51b815260206004820152602860248201527f5f5f72656465656d53686172657353657475703a204e6f2073686172657320746044820152676f2072656465656d60c01b606482015260840161035d565b6040516370a0823160e01b81526001600160a01b038781166004830152600091908416906370a0823190602401602060405180830381865afa158015611074573d6000803e3d6000fd5b505050506040513d601f19601f8201168201806040525081019061109891906120f3565b905060001986036110ab578094506110ca565b818110156110ca576110c76110c08383611a5e565b8690611a5e565b94505b826001600160a01b03166318160ddd6040518163ffffffff1660e01b8152600401602060405180830381865afa158015611108573d6000803e3d6000fd5b505050506040513d601f19601f8201168201806040525081019061112c91906120f3565b604051633b9e9f0160e21b81526001600160a01b038981166004830152602482018890529195509089169063ee7a7c0490604401600060405180830381600087803b15801561117a57600080fd5b505af115801561118e573d6000803e3d6000fd5b50505050505050935093915050565b6000610e2b828461248d565b6000610e2b82846124a4565b606060006111cb6001546001600160a01b031690565b905060008667ffffffffffffffff8111156111e8576111e8612300565b604051908082528060200260200182016040528015611211578160200160208202803683370190505b50925060005b878110156115535761124a878783818110611234576112346123db565b9050602002013583611a6a90919063ffffffff16565b915061aaaa898983818110611261576112616123db565b90506020020160208101906112769190611fd8565b6001600160a01b031614611541576000546201000090046001600160a01b03166001600160a01b0316634ddce9b06040518163ffffffff1660e01b8152600401602060405180830381865afa1580156112d3573d6000803e3d6000fd5b505050506040513d601f19601f820116820180604052508101906112f791906122b1565b6001600160a01b0316634c67e106846113376127106107a28c8c88818110611321576113216123db565b905060200201358b61119d90919063ffffffff16565b8c8c86818110611349576113496123db565b905060200201602081019061135e9190611fd8565b60405160e085901b6001600160e01b03191681526001600160a01b039384166004820152602481019290925290911660448201526064016020604051808303816000875af11580156113b4573d6000803e3d6000fd5b505050506040513d601f19601f820116820180604052508101906113d891906120f3565b8482815181106113ea576113ea6123db565b602002602001018181525050600084828151811061140a5761140a6123db565b6020026020010151116114855760405162461bcd60e51b815260206004820152603860248201527f5f5f7061796f7574537065636966696564417373657450657263656e7461676560448201527f733a205a65726f20616d6f756e7420666f722061737365740000000000000000606482015260840161035d565b8a6001600160a01b031663495d753c8a8a848181106114a6576114a66123db565b90506020020160208101906114bb9190611fd8565b8c8785815181106114ce576114ce6123db565b60209081029190910101516040516001600160e01b031960e086901b1681526001600160a01b0393841660048201529290911660248301526044820152606401600060405180830381600087803b15801561152857600080fd5b505af115801561153c573d6000803e3d6000fd5b505050505b8061154b816123f1565b915050611217565b5061271081146115cb5760405162461bcd60e51b815260206004820152603b60248201527f5f5f7061796f7574537065636966696564417373657450657263656e7461676560448201527f733a2050657263656e7473206d75737420746f74616c20313030250000000000606482015260840161035d565b5050979650505050505050565b600254600160a01b900460ff1615610dff5760405162461bcd60e51b815260206004820152601860248201527f5661756c7420616374696f6e2072652d656e7472616e63650000000000000000604482015260640161035d565b600061163c610e32565b6002805460ff60a81b1916600160a81b1790556001600160a01b0386166116b15760405162461bcd60e51b815260206004820152602360248201527f5f5f6275795368617265733a205f62757965722063616e6e6f7420626520656d60448201526270747960e81b606482015260840161035d565b600084116117145760405162461bcd60e51b815260206004820152602a60248201527f5f5f6275795368617265733a205f6d696e5368617265735175616e746974792060448201526906d757374206265203e360b41b606482015260840161035d565b60006117286002546001600160a01b031690565b905083156117885760405162461bcd60e51b815260206004820152602760248201527f5f5f6275795368617265733a20616374696f6e206c6f636b65642062792074696044820152666d65206c6f636b60c81b606482015260840161035d565b6000611792610a75565b905060006117b36117ab6001546001600160a01b031690565b86858b611a76565b905060006117f983856001600160a01b03166318160ddd6040518163ffffffff1660e01b8152600401602060405180830381865afa158015610583573d6000803e3d6000fd5b90506000611813826107a285670de0b6b3a764000061119d565b6040516370a0823160e01b81526001600160a01b038d811660048301529192506000918716906370a0823190602401602060405180830381865afa15801561185f573d6000803e3d6000fd5b505050506040513d601f19601f8201168201806040525081019061188391906120f3565b6040516329460cc560e11b81526001600160a01b038e81166004830152602482018590529192509087169063528c198a90604401600060405180830381600087803b1580156118d157600080fd5b505af11580156118e5573d6000803e3d6000fd5b50505050898210156119535760405162461bcd60e51b815260206004820152603160248201527f5f5f6275795368617265733a20536861726573207265636569766564203c205f6044820152706d696e5368617265735175616e7469747960781b606482015260840161035d565b8815611975576001600160a01b038c1660009081526004602052604090204290555b60408051858152602081018390529081018390526001600160a01b038d16907f849165c18b9d0fb161bcb145e4ab523d350e5c98f1dbbb1960331e7ee3ca67679060600160405180910390a2506002805460ff60a81b191690559a9950505050505050505050565b6001600160a01b038116600090815260046020526040902054801580611a0e5750600354611a0b4283611a5e565b10155b611a5a5760405162461bcd60e51b815260206004820152601860248201527f53686172657320616374696f6e2074696d656c6f636b65640000000000000000604482015260640161035d565b5050565b6000610e2b82846124c6565b6000610e2b828461247a565b6040516370a0823160e01b81526001600160a01b03838116600483015260009182918716906370a0823190602401602060405180830381865afa158015611ac1573d6000803e3d6000fd5b505050506040513d601f19601f82011682018060405250810190611ae591906120f3565b9050611afc6001600160a01b038716868686611b7e565b6040516370a0823160e01b81526001600160a01b038581166004830152611b729183918916906370a0823190602401602060405180830381865afa158015611b48573d6000803e3d6000fd5b505050506040513d601f19601f82011682018060405250810190611b6c91906120f3565b90611a5e565b9150505b949350505050565b604080516001600160a01b038581166024830152848116604483015260648083018590528351808403909101815260849092018352602080830180516001600160e01b03166323b872dd60e01b17905283518085019094528084527f5361666545524332303a206c6f772d6c6576656c2063616c6c206661696c65649084015261051d92879291600091611c16918516908490611c9b565b9050805160001480611c37575080806020019051810190611c3791906124d9565b611c965760405162461bcd60e51b815260206004820152602a60248201527f5361666545524332303a204552433230206f7065726174696f6e20646964206e6044820152691bdd081cdd58d8d9595960b21b606482015260840161035d565b505050565b6060610e28848460008585600080866001600160a01b03168587604051611cc2919061251f565b60006040518083038185875af1925050503d8060008114611cff576040519150601f19603f3d011682016040523d82523d6000602084013e611d04565b606091505b5091509150611d1587838387611d20565b979650505050505050565b60608315611d8f578251600003611d88576001600160a01b0385163b611d885760405162461bcd60e51b815260206004820152601d60248201527f416464726573733a2063616c6c20746f206e6f6e2d636f6e7472616374000000604482015260640161035d565b5081611b76565b611b768383815115611da45781518083602001fd5b8060405162461bcd60e51b815260040161035d919061253b565b60008083601f840112611dd057600080fd5b50813567ffffffffffffffff811115611de857600080fd5b602083019150836020828501011115611e0057600080fd5b9250929050565b600080600060408486031215611e1c57600080fd5b833560088110611e2b57600080fd5b9250602084013567ffffffffffffffff811115611e4757600080fd5b611e5386828701611dbe565b9497909650939450505050565b6001600160a01b0381168114611e7557600080fd5b50565b600080600060608486031215611e8d57600080fd5b8335611e9881611e60565b92506020840135611ea881611e60565b929592945050506040919091013590565b60008083601f840112611ecb57600080fd5b50813567ffffffffffffffff811115611ee357600080fd5b6020830191508360208260051b8501011115611e0057600080fd5b60008060008060008060808789031215611f1757600080fd5b8635611f2281611e60565b955060208701359450604087013567ffffffffffffffff80821115611f4657600080fd5b611f528a838b01611eb9565b90965094506060890135915080821115611f6b57600080fd5b50611f7889828a01611eb9565b979a9699509497509295939492505050565b600081518084526020808501945080840160005b83811015611fba57815187529582019590820190600101611f9e565b509495945050505050565b602081526000610e2b6020830184611f8a565b600060208284031215611fea57600080fd5b8135610e2b81611e60565b6000806000806060858703121561200b57600080fd5b843561201681611e60565b935060208501359250604085013567ffffffffffffffff81111561203957600080fd5b61204587828801611dbe565b95989497509550505050565b6000806040838503121561206457600080fd5b50508035926020909101359150565b634e487b7160e01b600052602160045260246000fd5b81835281816020850137506000828201602090810191909152601f909101601f19169091010190565b6000600885106120d257634e487b7160e01b600052602160045260246000fd5b848252604060208301526120ea604083018486612089565b95945050505050565b60006020828403121561210557600080fd5b5051919050565b60006020828403121561211e57600080fd5b815160ff81168114610e2b57600080fd5b634e487b7160e01b600052601160045260246000fd5b600181815b808511156121805781600019048211156121665761216661212f565b8085161561217357918102915b93841c939080029061214a565b509250929050565b60008261219757506001610d26565b816121a457506000610d26565b81600181146121ba57600281146121c4576121e0565b6001915050610d26565b60ff8411156121d5576121d561212f565b50506001821b610d26565b5060208310610133831016604e8410600b8410161715612203575081810a610d26565b61220d8383612145565b80600019048211156122215761222161212f565b029392505050565b6000610e2b8383612188565b84815260606020808301829052908201849052600090859060808401835b8781101561228157833561226681611e60565b6001600160a01b031682529282019290820190600101612253565b5084810360408601526122948187611f8a565b9998505050505050505050565b80516122ac81611e60565b919050565b6000602082840312156122c357600080fd5b8151610e2b81611e60565b60018060a01b03851681528360208201526060604082015260006122f6606083018486612089565b9695505050505050565b634e487b7160e01b600052604160045260246000fd5b6000602080838503121561232957600080fd5b825167ffffffffffffffff8082111561234157600080fd5b818501915085601f83011261235557600080fd5b81518181111561236757612367612300565b8060051b604051601f19603f8301168101818110858211171561238c5761238c612300565b6040529182528482019250838101850191888311156123aa57600080fd5b938501935b828510156123cf576123c0856122a1565b845293850193928501926123af565b98975050505050505050565b634e487b7160e01b600052603260045260246000fd5b6000600182016124035761240361212f565b5060010190565b606080825284519082018190526000906020906080840190828801845b8281101561244c5781516001600160a01b031684529284019290840190600101612427565b505050838103828501526124608187611f8a565b9250505060018060a01b0383166040830152949350505050565b80820180821115610d2657610d2661212f565b8082028115828204841417610d2657610d2661212f565b6000826124c157634e487b7160e01b600052601260045260246000fd5b500490565b81810381811115610d2657610d2661212f565b6000602082840312156124eb57600080fd5b81518015158114610e2b57600080fd5b60005b838110156125165781810151838201526020016124fe565b50506000910152565b600082516125318184602087016124fb565b9190910192915050565b602081526000825180602084015261255a8160408501602087016124fb565b601f01601f1916919091016040019291505056fea26469706673582212207c6b42a6171009460d6965251ca673d8ea952f2b867f0a94068948351d9d179664736f6c63430008130033",
    "linkReferences": {}
  },
  "methodIdentifiers": {
    "activate()": "0f15f4c0",
    "buyShares(uint256,uint256)": "beebc5da",
    "calcAum()": "442ab744",
    "calcNav()": "2acf179b",
    "callOnExtension(address,uint256,bytes)": "39bf70d1",
    "getDenominationAsset()": "e269c3d6",
    "getGlobalShared()": "ba82a0f4",
    "getLastSharesBoughtTimestampForAccount(address)": "7f20170d",
    "getSharesActionTimelock()": "4da471b7",
    "getVaultProxy()": "c9809187",
    "initialize(address,address,uint256)": "1794bb3c",
    "permissionedVaultAction(uint8,bytes)": "10acd06d",
    "redeemSharesForSpecificAssets(address,uint256,address[],uint256[])": "3462fcc1",
    "setVaultProxy(address)": "397bfe55"
  },
  "id": 20
}